{
  "transactions": [
    {
      "hash": "0x5e8c838c4791702c11964755f330bead0f1c5f8cf1c3414ba147f66721450953",
      "transactionType": "CREATE",
      "contractName": "PoolStrategyV1",
      "contractAddress": "0xa3934E5B10F14d0AeB4538F0639282FE482c324c",
      "function": null,
      "arguments": null,
      "transaction": {
        "type": "0x02",
        "from": "0xc0b60d26af7bb4aabad6e020b9583d136a0fb001",
        "gas": "0x134920",
        "value": "0x0",
        "data": "0x608060405234801561001057600080fd5b506110b4806100206000396000f3fe608060405234801561001057600080fd5b50600436106100e95760003560e01c806350d75d251161008c578063a03e4bc311610066578063a03e4bc3146101c7578063a0c1f15e146101da578063cc2a9a5b146101ed578063fc0c546a1461020057600080fd5b806350d75d251461018757806352d1902d1461018f578063722713f7146101bf57600080fd5b8063216efb42116100c8578063216efb42146101465780632b4116f7146101595780634146a0731461016c578063469519541461017457600080fd5b8062f714ce146100ee57806306a3fe591461010357806316f0115b14610133575b600080fd5b6101016100fc366004610eec565b610213565b005b600654610116906001600160a01b031681565b6040516001600160a01b0390911681526020015b60405180910390f35b600254610116906001600160a01b031681565b610101610154366004610f1c565b610280565b600154610116906001600160a01b031681565b6101016102ec565b610101610182366004610f35565b6103d4565b61011661042a565b7f38c23e558cab3d4281426cc82d6a9c0dc92258b81d6fd1e3d568f2975482a7475b60405190815260200161012a565b6101b1610459565b600354610116906001600160a01b031681565b600454610116906001600160a01b031681565b6101016101fb366004610f59565b6104da565b600554610116906001600160a01b031681565b6002546001600160a01b031633146102725760405162461bcd60e51b815260206004820152601160248201527f4f6e6c7920506f6f6c20416c6c6f77656400000000000000000000000000000060448201526064015b60405180910390fd5b61027c8282610761565b5050565b6002546001600160a01b031633146102da5760405162461bcd60e51b815260206004820152601160248201527f4f6e6c7920506f6f6c20416c6c6f7765640000000000000000000000000000006044820152606401610269565b80156102e9576102e981610a47565b50565b6000546201000090046001600160a01b031633146103395760405162461bcd60e51b815260206004820152600a60248201526927b7363c9027bbb732b960b11b6044820152606401610269565b600480546040516370a0823160e01b815230928101929092526000916001600160a01b03909116906370a0823190602401602060405180830381865afa158015610387573d6000803e3d6000fd5b505050506040513d601f19601f820116820180604052508101906103ab9190610fdb565b6103ba9064e8d4a5100061100a565b6002549091506102e99082906001600160a01b0316610761565b6000546201000090046001600160a01b031633146104215760405162461bcd60e51b815260206004820152600a60248201526927b7363c9027bbb732b960b11b6044820152606401610269565b6102e981610c7d565b60006104547f360894a13ba1a3210667c828492db98dca3e2076cc3735a920a3ca505d382bbc5490565b905090565b600480546040516370a0823160e01b815230928101929092526000916001600160a01b03909116906370a0823190602401602060405180830381865afa1580156104a7573d6000803e3d6000fd5b505050506040513d601f19601f820116820180604052508101906104cb9190610fdb565b6104549064e8d4a5100061100a565b600054610100900460ff16158080156104fa5750600054600160ff909116105b806105145750303b158015610514575060005460ff166001145b6105865760405162461bcd60e51b815260206004820152602e60248201527f496e697469616c697a61626c653a20636f6e747261637420697320616c72656160448201527f647920696e697469616c697a65640000000000000000000000000000000000006064820152608401610269565b6000805460ff1916600117905580156105a9576000805461ff0019166101001790555b600080547fffffffffffffffffffff0000000000000000000000000000000000000000ffff16336201000002179055600180547fffffffffffffffffffffffff00000000000000000000000000000000000000009081166001600160a01b038a8116919091179092556005805482168984161790556002805482168884161790556003805482168784169081179091556004805483168785161781556006805490931693861693841790925560405163095ea7b360e01b815291820152600019602482015263095ea7b390604401600060405180830381600087803b15801561069157600080fd5b505af11580156106a5573d6000803e3d6000fd5b505060055460015460405163095ea7b360e01b81526001600160a01b03918216600482015260001960248201529116925063095ea7b39150604401600060405180830381600087803b1580156106fa57600080fd5b505af115801561070e573d6000803e3d6000fd5b505050508015610758576000805461ff0019169055604051600181527f7f26b83ff96e1f2b6a682f133852f6798a09c465da95921460cefb38474024989060200160405180910390a15b50505050505050565b600061077264e8d4a5100084611027565b111561027c576003546006546001600160a01b03918216916369328dec91166107a064e8d4a5100086611027565b6040517fffffffff0000000000000000000000000000000000000000000000000000000060e085901b1681526001600160a01b03909216600483015260248201523060448201526064016020604051808303816000875af1158015610809573d6000803e3d6000fd5b505050506040513d601f19601f8201168201806040525081019061082d9190610fdb565b506005546040516370a0823160e01b81523060048201526000916001600160a01b0316906370a08231906024016020604051808303816000875af1158015610879573d6000803e3d6000fd5b505050506040513d601f19601f8201168201806040525081019061089d9190610fdb565b90508281101561093a576005546001600160a01b03166340c10f19306108c38487611049565b6040517fffffffff0000000000000000000000000000000000000000000000000000000060e085901b1681526001600160a01b0390921660048301526024820152604401600060405180830381600087803b15801561092157600080fd5b505af1158015610935573d6000803e3d6000fd5b505050505b6001546040517f45977d03000000000000000000000000000000000000000000000000000000008152600481018590526001600160a01b03909116906345977d0390602401600060405180830381600087803b15801561099957600080fd5b505af11580156109ad573d6000803e3d6000fd5b50506001546040517fa9059cbb0000000000000000000000000000000000000000000000000000000081526001600160a01b03868116600483015260248201889052909116925063a9059cbb91506044016020604051808303816000875af1158015610a1d573d6000803e3d6000fd5b505050506040513d601f19601f82011682018060405250810190610a41919061105c565b50505050565b6001546002546040517f23b872dd0000000000000000000000000000000000000000000000000000000081526001600160a01b039182166004820152306024820152604481018490529116906323b872dd906064016020604051808303816000875af1158015610abb573d6000803e3d6000fd5b505050506040513d601f19601f82011682018060405250810190610adf919061105c565b506001546040517f11bcc81e000000000000000000000000000000000000000000000000000000008152600481018390526001600160a01b03909116906311bcc81e90602401600060405180830381600087803b158015610b3f57600080fd5b505af1158015610b53573d6000803e3d6000fd5b50505050600064e8d4a5100082610b6a9190611027565b6006546040517fa0712d68000000000000000000000000000000000000000000000000000000008152600481018390529192506001600160a01b03169063a0712d6890602401600060405180830381600087803b158015610bca57600080fd5b505af1158015610bde573d6000803e3d6000fd5b50505050600081111561027c576003546006546040517fe8eda9df0000000000000000000000000000000000000000000000000000000081526001600160a01b039182166004820152602481018490523060448201526000606482015291169063e8eda9df90608401600060405180830381600087803b158015610c6157600080fd5b505af1158015610c75573d6000803e3d6000fd5b505050505050565b6000610ca77f360894a13ba1a3210667c828492db98dca3e2076cc3735a920a3ca505d382bbc5490565b6001600160a01b031603610cfd5760405162461bcd60e51b815260206004820152601d60248201527f5555505350726f786961626c653a206e6f742075706772616461626c650000006044820152606401610269565b806001600160a01b03166352d1902d6040518163ffffffff1660e01b8152600401602060405180830381865afa158015610d3b573d6000803e3d6000fd5b505050506040513d601f19601f82011682018060405250810190610d5f9190610fdb565b7f38c23e558cab3d4281426cc82d6a9c0dc92258b81d6fd1e3d568f2975482a74714610df35760405162461bcd60e51b815260206004820152602360248201527f5555505350726f786961626c653a206e6f7420636f6d70617469626c65206c6f60448201527f67696300000000000000000000000000000000000000000000000000000000006064820152608401610269565b6001600160a01b0381163003610e4b5760405162461bcd60e51b815260206004820152601960248201527f5555505350726f786961626c653a2070726f7879206c6f6f70000000000000006044820152606401610269565b610e73817f360894a13ba1a3210667c828492db98dca3e2076cc3735a920a3ca505d382bbc55565b7fe011bc04c286c344a8fcbb8de77f953da762c3e25d8cdea984147fc4168a5dcc7f38c23e558cab3d4281426cc82d6a9c0dc92258b81d6fd1e3d568f2975482a747604080519182526001600160a01b03841660208301520160405180910390a150565b6001600160a01b03811681146102e957600080fd5b60008060408385031215610eff57600080fd5b823591506020830135610f1181610ed7565b809150509250929050565b600060208284031215610f2e57600080fd5b5035919050565b600060208284031215610f4757600080fd5b8135610f5281610ed7565b9392505050565b60008060008060008060c08789031215610f7257600080fd5b8635610f7d81610ed7565b95506020870135610f8d81610ed7565b94506040870135610f9d81610ed7565b93506060870135610fad81610ed7565b92506080870135610fbd81610ed7565b915060a0870135610fcd81610ed7565b809150509295509295509295565b600060208284031215610fed57600080fd5b5051919050565b634e487b7160e01b600052601160045260246000fd5b808202811582820484141761102157611021610ff4565b92915050565b60008261104457634e487b7160e01b600052601260045260246000fd5b500490565b8181038181111561102157611021610ff4565b60006020828403121561106e57600080fd5b81518015158114610f5257600080fdfea2646970667358221220f03668370211871a5039f28859f355ce6d6547522b982acbe76e9f8db575b56164736f6c63430008110033",
        "nonce": "0x35",
        "accessList": []
      },
      "additionalContracts": [],
      "isFixedGasLimit": false
    },
    {
      "hash": "0xf7d331de26cd1b1e6f5ac9a482b5a629b2b93db112cb24cb46f0a37cdef39ffa",
      "transactionType": "CALL",
      "contractName": "SuperPoolFactory",
      "contractAddress": "0x079cb4e3830F1F16e04FF4DE304A187815bD2fCE",
      "function": "createSuperPool((address,address,address,address,address,address)):(address)",
      "arguments": [
        "(0x42bb40bF79730451B11f6De1CbA222F17b87Afd7, 0xa3934E5B10F14d0AeB4538F0639282FE482c324c, 0xbe49ac1EadAc65dccf204D4Df81d650B50122aB2, 0x9198F13B08E299d85E096929fA9781A1E3d5d827, 0x2271e3Fef9e15046d09E1d78a8FF038c691E9Cf9, 0x2058A9D7613eEE744279e3856Ef0eAda5FCbaA7e)"
      ],
      "transaction": {
        "type": "0x02",
        "from": "0xc0b60d26af7bb4aabad6e020b9583d136a0fb001",
        "to": "0x079cb4e3830f1f16e04ff4de304a187815bd2fce",
        "gas": "0x1a9275",
        "value": "0x0",
        "data": "0xe64b144900000000000000000000000042bb40bf79730451b11f6de1cba222f17b87afd7000000000000000000000000a3934e5b10f14d0aeb4538f0639282fe482c324c000000000000000000000000be49ac1eadac65dccf204d4df81d650b50122ab20000000000000000000000009198f13b08e299d85e096929fa9781a1e3d5d8270000000000000000000000002271e3fef9e15046d09e1d78a8ff038c691e9cf90000000000000000000000002058a9d7613eee744279e3856ef0eada5fcbaa7e",
        "nonce": "0x36",
        "accessList": []
      },
      "additionalContracts": [
        {
          "transactionType": "CREATE",
          "address": "0xB644F954E10a3f530d901a2A0aA84713ce9878c8",
          "initCode": "0x608060405234801561001057600080fd5b50610251806100206000396000f3fe6080604052600436106100225760003560e01c80634a0687ef1461003957610031565b366100315761002f610059565b005b61002f610059565b34801561004557600080fd5b5061002f6100543660046101de565b61006b565b61006961006461018b565b6101ba565b565b73ffffffffffffffffffffffffffffffffffffffff81166100d35760405162461bcd60e51b815260206004820152601760248201527f5555505350726f78793a207a65726f206164647265737300000000000000000060448201526064015b60405180910390fd5b60006100fd7f360894a13ba1a3210667c828492db98dca3e2076cc3735a920a3ca505d382bbc5490565b73ffffffffffffffffffffffffffffffffffffffff16146101605760405162461bcd60e51b815260206004820152601e60248201527f5555505350726f78793a20616c726561647920696e697469616c697a6564000060448201526064016100ca565b610188817f360894a13ba1a3210667c828492db98dca3e2076cc3735a920a3ca505d382bbc55565b50565b60006101b57f360894a13ba1a3210667c828492db98dca3e2076cc3735a920a3ca505d382bbc5490565b905090565b3660008037600080366000845af43d6000803e8080156101d9573d6000f35b3d6000fd5b6000602082840312156101f057600080fd5b813573ffffffffffffffffffffffffffffffffffffffff8116811461021457600080fd5b939250505056fea2646970667358221220072db4d819c924888d6afd2e5a69c1416e59755f27a481eb4154021bd7fca1b464736f6c63430008110033"
        },
        {
          "transactionType": "CREATE",
          "address": "0xE9cD9c7d2324adcf45F370F5bDeC3aCE33Ed52A0",
          "initCode": "0x608060405234801561001057600080fd5b50610251806100206000396000f3fe6080604052600436106100225760003560e01c80634a0687ef1461003957610031565b366100315761002f610059565b005b61002f610059565b34801561004557600080fd5b5061002f6100543660046101de565b61006b565b61006961006461018b565b6101ba565b565b73ffffffffffffffffffffffffffffffffffffffff81166100d35760405162461bcd60e51b815260206004820152601760248201527f5555505350726f78793a207a65726f206164647265737300000000000000000060448201526064015b60405180910390fd5b60006100fd7f360894a13ba1a3210667c828492db98dca3e2076cc3735a920a3ca505d382bbc5490565b73ffffffffffffffffffffffffffffffffffffffff16146101605760405162461bcd60e51b815260206004820152601e60248201527f5555505350726f78793a20616c726561647920696e697469616c697a6564000060448201526064016100ca565b610188817f360894a13ba1a3210667c828492db98dca3e2076cc3735a920a3ca505d382bbc55565b50565b60006101b57f360894a13ba1a3210667c828492db98dca3e2076cc3735a920a3ca505d382bbc5490565b905090565b3660008037600080366000845af43d6000803e8080156101d9573d6000f35b3d6000fd5b6000602082840312156101f057600080fd5b813573ffffffffffffffffffffffffffffffffffffffff8116811461021457600080fd5b939250505056fea2646970667358221220072db4d819c924888d6afd2e5a69c1416e59755f27a481eb4154021bd7fca1b464736f6c63430008110033"
        }
      ],
      "isFixedGasLimit": false
    }
  ],
  "receipts": [
    {
      "transactionHash": "0x5e8c838c4791702c11964755f330bead0f1c5f8cf1c3414ba147f66721450953",
      "transactionIndex": "0x13",
      "blockHash": "0x809c6b8cc237e6702ea2312845f7f09b50ef3798cdc2467397d6b7f902d4c006",
      "blockNumber": "0x25a8a71",
      "from": "0xC0b60d26aF7Bb4AABaD6E020b9583d136A0Fb001",
      "to": null,
      "cumulativeGasUsed": "0x3b1f6f",
      "gasUsed": "0xed5ca",
      "contractAddress": "0xa3934E5B10F14d0AeB4538F0639282FE482c324c",
      "logs": [
        {
          "address": "0x0000000000000000000000000000000000001010",
          "topics": [
            "0x4dfe1bbbcf077ddc3e01291eea2d5c70c2b422b415d95645b9adcfd678cb1d63",
            "0x0000000000000000000000000000000000000000000000000000000000001010",
            "0x000000000000000000000000c0b60d26af7bb4aabad6e020b9583d136a0fb001",
            "0x0000000000000000000000005082f249cdb2f2c1ee035e4f423c46ea2dab3ab1"
          ],
          "data": "0x0000000000000000000000000000000000000000000000000006e87bbb5fbfcc000000000000000000000000000000000000000000000003c3ab17bc2c784888000000000000000000000000000000000000000000000075bbe570618d5126a2000000000000000000000000000000000000000000000003c3a42f40711888bc000000000000000000000000000000000000000000000075bbec58dd48b0e66e",
          "blockHash": "0x809c6b8cc237e6702ea2312845f7f09b50ef3798cdc2467397d6b7f902d4c006",
          "blockNumber": "0x25a8a71",
          "transactionHash": "0x5e8c838c4791702c11964755f330bead0f1c5f8cf1c3414ba147f66721450953",
          "transactionIndex": "0x13",
          "logIndex": "0x79",
          "removed": false
        }
      ],
      "status": "0x1",
      "logsBloom": "0x00000000000000000000000000000000000000000000000000000000020000000000000002000000000000000000000000008000000000000000000000000000000000000000000000000000000000800000000000000000000100000000000000000000000000000000000000000002000000000000000080000000000000000000000000000000000000000000100000000000000000000000000000000000200000000000000000000000000000000000000000000000000000000000004000000000000000000001000000000000000000000000000000100000000000020000000000000080000000000000000000000000000000000000000000100000",
      "type": "0x2",
      "effectiveGasPrice": "0x77359400"
    },
    {
      "transactionHash": "0xf7d331de26cd1b1e6f5ac9a482b5a629b2b93db112cb24cb46f0a37cdef39ffa",
      "transactionIndex": "0x14",
      "blockHash": "0x809c6b8cc237e6702ea2312845f7f09b50ef3798cdc2467397d6b7f902d4c006",
      "blockNumber": "0x25a8a71",
      "from": "0xC0b60d26aF7Bb4AABaD6E020b9583d136A0Fb001",
      "to": "0x079cb4e3830F1F16e04FF4DE304A187815bD2fCE",
      "cumulativeGasUsed": "0x4e5c4b",
      "gasUsed": "0x133cdc",
      "contractAddress": null,
      "logs": [
        {
          "address": "0x1820a4B7618BdE71Dce8cdc73aAB6C95905faD24",
          "topics": [
            "0x93baa6efbd2244243bfee6ce4cfdd1d04fc4c0e9a786abd3a41313bd352db153",
            "0x000000000000000000000000b644f954e10a3f530d901a2a0aa84713ce9878c8",
            "0xb281fc8c12954d22544db45de3159a39272895b169a852b314f9cc762e44c53b",
            "0x000000000000000000000000b644f954e10a3f530d901a2a0aa84713ce9878c8"
          ],
          "data": "0x",
          "blockHash": "0x809c6b8cc237e6702ea2312845f7f09b50ef3798cdc2467397d6b7f902d4c006",
          "blockNumber": "0x25a8a71",
          "transactionHash": "0xf7d331de26cd1b1e6f5ac9a482b5a629b2b93db112cb24cb46f0a37cdef39ffa",
          "transactionIndex": "0x14",
          "logIndex": "0x7a",
          "removed": false
        },
        {
          "address": "0xbe49ac1EadAc65dccf204D4Df81d650B50122aB2",
          "topics": [
            "0x8c5be1e5ebec7d5bd14f71427d1e84f3dd0314c0f7b2291e5b200ac8c7c3b925",
            "0x000000000000000000000000b644f954e10a3f530d901a2a0aa84713ce9878c8",
            "0x000000000000000000000000e9cd9c7d2324adcf45f370f5bdec3ace33ed52a0"
          ],
          "data": "0xffffffffffffffffffffffffffffffffffffffffffffffffffffffffffffffff",
          "blockHash": "0x809c6b8cc237e6702ea2312845f7f09b50ef3798cdc2467397d6b7f902d4c006",
          "blockNumber": "0x25a8a71",
          "transactionHash": "0xf7d331de26cd1b1e6f5ac9a482b5a629b2b93db112cb24cb46f0a37cdef39ffa",
          "transactionIndex": "0x14",
          "logIndex": "0x7b",
          "removed": false
        },
        {
          "address": "0x42bb40bF79730451B11f6De1CbA222F17b87Afd7",
          "topics": [
            "0x8c5be1e5ebec7d5bd14f71427d1e84f3dd0314c0f7b2291e5b200ac8c7c3b925",
            "0x000000000000000000000000b644f954e10a3f530d901a2a0aa84713ce9878c8",
            "0x000000000000000000000000e9cd9c7d2324adcf45f370f5bdec3ace33ed52a0"
          ],
          "data": "0xffffffffffffffffffffffffffffffffffffffffffffffffffffffffffffffff",
          "blockHash": "0x809c6b8cc237e6702ea2312845f7f09b50ef3798cdc2467397d6b7f902d4c006",
          "blockNumber": "0x25a8a71",
          "transactionHash": "0xf7d331de26cd1b1e6f5ac9a482b5a629b2b93db112cb24cb46f0a37cdef39ffa",
          "transactionIndex": "0x14",
          "logIndex": "0x7c",
          "removed": false
        },
        {
          "address": "0xB3f5503f93d5Ef84b06993a1975B9D21B962892F",
          "topics": [
            "0x73f079427211e7b93db86024054de0b3c4a076a36cf0f86d2c4bf0d112eb7f1d",
            "0x000000000000000000000000b644f954e10a3f530d901a2a0aa84713ce9878c8",
            "0x000000000000000000000000b644f954e10a3f530d901a2a0aa84713ce9878c8",
            "0x3fb9fe927aec382e954ce43f854af3fe6760533ccbb08785f4335521f1aec3b5"
          ],
          "data": "0x000000000000000000000000000000000000000000000000000000000000006000000000000000000000000000000000000000000000000000000000000000a0000000000000000000000000eeeeeeeeeeeeeeeeeeeeeeeeeeeeeeeeeeeeeeee0000000000000000000000000000000000000000000000000000000000000004e5e2fd7b000000000000000000000000000000000000000000000000000000000000000000000000000000000000000000000000000000000000000000000040000000000000000000000000000000000000000000000000000000000000008000000000000000000000000000000000000000000000000000000000000000010000000000000000000000000000000000000000000000000000000000000000000000000000000000000000000000000000000000000000000000000000000100000000000000000000000000000000000000000000000000000000000000200000000000000000000000000000000000000000000000000000000000000080000000000000000000000000b644f954e10a3f530d901a2a0aa84713ce9878c8000000000000000000000000000000000000000000000000000000000000004000000000000000000000000000000000000000000000000000000000000000048e22364b00000000000000000000000000000000000000000000000000000000",
          "blockHash": "0x809c6b8cc237e6702ea2312845f7f09b50ef3798cdc2467397d6b7f902d4c006",
          "blockNumber": "0x25a8a71",
          "transactionHash": "0xf7d331de26cd1b1e6f5ac9a482b5a629b2b93db112cb24cb46f0a37cdef39ffa",
          "transactionIndex": "0x14",
          "logIndex": "0x7d",
          "removed": false
        },
        {
          "address": "0xB644F954E10a3f530d901a2A0aA84713ce9878c8",
          "topics": [
            "0x7f26b83ff96e1f2b6a682f133852f6798a09c465da95921460cefb3847402498"
          ],
          "data": "0x0000000000000000000000000000000000000000000000000000000000000001",
          "blockHash": "0x809c6b8cc237e6702ea2312845f7f09b50ef3798cdc2467397d6b7f902d4c006",
          "blockNumber": "0x25a8a71",
          "transactionHash": "0xf7d331de26cd1b1e6f5ac9a482b5a629b2b93db112cb24cb46f0a37cdef39ffa",
          "transactionIndex": "0x14",
          "logIndex": "0x7e",
          "removed": false
        },
        {
          "address": "0x2058A9D7613eEE744279e3856Ef0eAda5FCbaA7e",
          "topics": [
            "0x8c5be1e5ebec7d5bd14f71427d1e84f3dd0314c0f7b2291e5b200ac8c7c3b925",
            "0x000000000000000000000000e9cd9c7d2324adcf45f370f5bdec3ace33ed52a0",
            "0x0000000000000000000000009198f13b08e299d85e096929fa9781a1e3d5d827"
          ],
          "data": "0xffffffffffffffffffffffffffffffffffffffffffffffffffffffffffffffff",
          "blockHash": "0x809c6b8cc237e6702ea2312845f7f09b50ef3798cdc2467397d6b7f902d4c006",
          "blockNumber": "0x25a8a71",
          "transactionHash": "0xf7d331de26cd1b1e6f5ac9a482b5a629b2b93db112cb24cb46f0a37cdef39ffa",
          "transactionIndex": "0x14",
          "logIndex": "0x7f",
          "removed": false
        },
        {
          "address": "0xbe49ac1EadAc65dccf204D4Df81d650B50122aB2",
          "topics": [
            "0x8c5be1e5ebec7d5bd14f71427d1e84f3dd0314c0f7b2291e5b200ac8c7c3b925",
            "0x000000000000000000000000e9cd9c7d2324adcf45f370f5bdec3ace33ed52a0",
            "0x00000000000000000000000042bb40bf79730451b11f6de1cba222f17b87afd7"
          ],
          "data": "0xffffffffffffffffffffffffffffffffffffffffffffffffffffffffffffffff",
          "blockHash": "0x809c6b8cc237e6702ea2312845f7f09b50ef3798cdc2467397d6b7f902d4c006",
          "blockNumber": "0x25a8a71",
          "transactionHash": "0xf7d331de26cd1b1e6f5ac9a482b5a629b2b93db112cb24cb46f0a37cdef39ffa",
          "transactionIndex": "0x14",
          "logIndex": "0x80",
          "removed": false
        },
        {
          "address": "0xE9cD9c7d2324adcf45F370F5bDeC3aCE33Ed52A0",
          "topics": [
            "0x7f26b83ff96e1f2b6a682f133852f6798a09c465da95921460cefb3847402498"
          ],
          "data": "0x0000000000000000000000000000000000000000000000000000000000000001",
          "blockHash": "0x809c6b8cc237e6702ea2312845f7f09b50ef3798cdc2467397d6b7f902d4c006",
          "blockNumber": "0x25a8a71",
          "transactionHash": "0xf7d331de26cd1b1e6f5ac9a482b5a629b2b93db112cb24cb46f0a37cdef39ffa",
          "transactionIndex": "0x14",
          "logIndex": "0x81",
          "removed": false
        },
        {
          "address": "0xEB796bdb90fFA0f28255275e16936D25d3418603",
          "topics": [
            "0x0d540ad8f39e07d19909687352b9fa017405d93c91a6760981fbae9cf28bfef7",
            "0x000000000000000000000000b644f954e10a3f530d901a2a0aa84713ce9878c8"
          ],
          "data": "0x",
          "blockHash": "0x809c6b8cc237e6702ea2312845f7f09b50ef3798cdc2467397d6b7f902d4c006",
          "blockNumber": "0x25a8a71",
          "transactionHash": "0xf7d331de26cd1b1e6f5ac9a482b5a629b2b93db112cb24cb46f0a37cdef39ffa",
          "transactionIndex": "0x14",
          "logIndex": "0x82",
          "removed": false
        },
        {
          "address": "0x0000000000000000000000000000000000001010",
          "topics": [
            "0x4dfe1bbbcf077ddc3e01291eea2d5c70c2b422b415d95645b9adcfd678cb1d63",
            "0x0000000000000000000000000000000000000000000000000000000000001010",
            "0x000000000000000000000000c0b60d26af7bb4aabad6e020b9583d136a0fb001",
            "0x0000000000000000000000005082f249cdb2f2c1ee035e4f423c46ea2dab3ab1"
          ],
          "data": "0x0000000000000000000000000000000000000000000000000008f550fb60e888000000000000000000000000000000000000000000000003c3a42f40700d8088000000000000000000000000000000000000000000000075bbec58dd48b0e66e000000000000000000000000000000000000000000000003c39b39ef74ac9800000000000000000000000000000000000000000000000075bbf54e2e4411cef6",
          "blockHash": "0x809c6b8cc237e6702ea2312845f7f09b50ef3798cdc2467397d6b7f902d4c006",
          "blockNumber": "0x25a8a71",
          "transactionHash": "0xf7d331de26cd1b1e6f5ac9a482b5a629b2b93db112cb24cb46f0a37cdef39ffa",
          "transactionIndex": "0x14",
          "logIndex": "0x83",
          "removed": false
        }
      ],
      "status": "0x1",
      "logsBloom": "0x00000000021000000000000000010040800010000000000000000000020000001000000002004000000000000000002000008000000000000000000000200000010000040400008000000000000200800404001000080000400100010000000000000400000000002000000000000002040010004020000080000000020001000000002000000000400000004000100000000100000080000000012000000000220000000000000000000200000400000000080000000000200841000000004400002000000000600001000000040000000000000000000000100000000000020010000000010080000000000000000000000000400020000000000020100000",
      "type": "0x2",
      "effectiveGasPrice": "0x77359400"
    }
  ],
  "libraries": [],
  "pending": [],
  "returns": {},
  "timestamp": 1693220655,
  "chain": 80001,
  "multi": false,
  "commit": "90d0b85"
}