{
  "transactions": [
    {
      "hash": "0xab15c08c03ccb31c8221857bdaf4abaf0e27ef04dd0cf44e3c2cf5114c7c7b94",
      "transactionType": "CREATE",
      "contractName": "PoolStrategyV1",
      "contractAddress": "0xaD9e4dad3889553B75d72A4Bb0b20f8640F301f1",
      "function": null,
      "arguments": null,
      "transaction": {
        "type": "0x00",
        "from": "0xc0b60d26af7bb4aabad6e020b9583d136a0fb001",
        "gas": "0x125fbe",
        "value": "0x0",
        "data": "0x608060405234801561001057600080fd5b50610fe0806100206000396000f3fe608060405234801561001057600080fd5b50600436106100875760003560e01c806350d75d251161005b57806350d75d25146100cf57806352d1902d146100f4578063722713f714610124578063cc2a9a5b1461012c57600080fd5b8062f714ce1461008c578063216efb42146100a15780634146a073146100b457806346951954146100bc575b600080fd5b61009f61009a366004610e18565b61013f565b005b61009f6100af366004610e48565b6101ac565b61009f610218565b61009f6100ca366004610e61565b610300565b6100d7610356565b6040516001600160a01b0390911681526020015b60405180910390f35b7f38c23e558cab3d4281426cc82d6a9c0dc92258b81d6fd1e3d568f2975482a7475b6040519081526020016100eb565b610116610385565b61009f61013a366004610e85565b610406565b6002546001600160a01b0316331461019e5760405162461bcd60e51b815260206004820152601160248201527f4f6e6c7920506f6f6c20416c6c6f77656400000000000000000000000000000060448201526064015b60405180910390fd5b6101a8828261068d565b5050565b6002546001600160a01b031633146102065760405162461bcd60e51b815260206004820152601160248201527f4f6e6c7920506f6f6c20416c6c6f7765640000000000000000000000000000006044820152606401610195565b80156102155761021581610973565b50565b6000546201000090046001600160a01b031633146102655760405162461bcd60e51b815260206004820152600a60248201526927b7363c9027bbb732b960b11b6044820152606401610195565b600480546040516370a0823160e01b815230928101929092526000916001600160a01b03909116906370a0823190602401602060405180830381865afa1580156102b3573d6000803e3d6000fd5b505050506040513d601f19601f820116820180604052508101906102d79190610f07565b6102e69064e8d4a51000610f36565b6002549091506102159082906001600160a01b031661068d565b6000546201000090046001600160a01b0316331461034d5760405162461bcd60e51b815260206004820152600a60248201526927b7363c9027bbb732b960b11b6044820152606401610195565b61021581610ba9565b60006103807f360894a13ba1a3210667c828492db98dca3e2076cc3735a920a3ca505d382bbc5490565b905090565b600480546040516370a0823160e01b815230928101929092526000916001600160a01b03909116906370a0823190602401602060405180830381865afa1580156103d3573d6000803e3d6000fd5b505050506040513d601f19601f820116820180604052508101906103f79190610f07565b6103809064e8d4a51000610f36565b600054610100900460ff16158080156104265750600054600160ff909116105b806104405750303b158015610440575060005460ff166001145b6104b25760405162461bcd60e51b815260206004820152602e60248201527f496e697469616c697a61626c653a20636f6e747261637420697320616c72656160448201527f647920696e697469616c697a65640000000000000000000000000000000000006064820152608401610195565b6000805460ff1916600117905580156104d5576000805461ff0019166101001790555b600080547fffffffffffffffffffff0000000000000000000000000000000000000000ffff16336201000002179055600180547fffffffffffffffffffffffff00000000000000000000000000000000000000009081166001600160a01b038a8116919091179092556005805482168984161790556002805482168884161790556003805482168784169081179091556004805483168785161781556006805490931693861693841790925560405163095ea7b360e01b815291820152600019602482015263095ea7b390604401600060405180830381600087803b1580156105bd57600080fd5b505af11580156105d1573d6000803e3d6000fd5b505060055460015460405163095ea7b360e01b81526001600160a01b03918216600482015260001960248201529116925063095ea7b39150604401600060405180830381600087803b15801561062657600080fd5b505af115801561063a573d6000803e3d6000fd5b505050508015610684576000805461ff0019169055604051600181527f7f26b83ff96e1f2b6a682f133852f6798a09c465da95921460cefb38474024989060200160405180910390a15b50505050505050565b600061069e64e8d4a5100084610f53565b11156101a8576003546006546001600160a01b03918216916369328dec91166106cc64e8d4a5100086610f53565b6040517fffffffff0000000000000000000000000000000000000000000000000000000060e085901b1681526001600160a01b03909216600483015260248201523060448201526064016020604051808303816000875af1158015610735573d6000803e3d6000fd5b505050506040513d601f19601f820116820180604052508101906107599190610f07565b506005546040516370a0823160e01b81523060048201526000916001600160a01b0316906370a08231906024016020604051808303816000875af11580156107a5573d6000803e3d6000fd5b505050506040513d601f19601f820116820180604052508101906107c99190610f07565b905082811015610866576005546001600160a01b03166340c10f19306107ef8487610f75565b6040517fffffffff0000000000000000000000000000000000000000000000000000000060e085901b1681526001600160a01b0390921660048301526024820152604401600060405180830381600087803b15801561084d57600080fd5b505af1158015610861573d6000803e3d6000fd5b505050505b6001546040517f45977d03000000000000000000000000000000000000000000000000000000008152600481018590526001600160a01b03909116906345977d0390602401600060405180830381600087803b1580156108c557600080fd5b505af11580156108d9573d6000803e3d6000fd5b50506001546040517fa9059cbb0000000000000000000000000000000000000000000000000000000081526001600160a01b03868116600483015260248201889052909116925063a9059cbb91506044016020604051808303816000875af1158015610949573d6000803e3d6000fd5b505050506040513d601f19601f8201168201806040525081019061096d9190610f88565b50505050565b6001546002546040517f23b872dd0000000000000000000000000000000000000000000000000000000081526001600160a01b039182166004820152306024820152604481018490529116906323b872dd906064016020604051808303816000875af11580156109e7573d6000803e3d6000fd5b505050506040513d601f19601f82011682018060405250810190610a0b9190610f88565b506001546040517f11bcc81e000000000000000000000000000000000000000000000000000000008152600481018390526001600160a01b03909116906311bcc81e90602401600060405180830381600087803b158015610a6b57600080fd5b505af1158015610a7f573d6000803e3d6000fd5b50505050600064e8d4a5100082610a969190610f53565b6006546040517fa0712d68000000000000000000000000000000000000000000000000000000008152600481018390529192506001600160a01b03169063a0712d6890602401600060405180830381600087803b158015610af657600080fd5b505af1158015610b0a573d6000803e3d6000fd5b5050505060008111156101a8576003546006546040517fe8eda9df0000000000000000000000000000000000000000000000000000000081526001600160a01b039182166004820152602481018490523060448201526000606482015291169063e8eda9df90608401600060405180830381600087803b158015610b8d57600080fd5b505af1158015610ba1573d6000803e3d6000fd5b505050505050565b6000610bd37f360894a13ba1a3210667c828492db98dca3e2076cc3735a920a3ca505d382bbc5490565b6001600160a01b031603610c295760405162461bcd60e51b815260206004820152601d60248201527f5555505350726f786961626c653a206e6f742075706772616461626c650000006044820152606401610195565b806001600160a01b03166352d1902d6040518163ffffffff1660e01b8152600401602060405180830381865afa158015610c67573d6000803e3d6000fd5b505050506040513d601f19601f82011682018060405250810190610c8b9190610f07565b7f38c23e558cab3d4281426cc82d6a9c0dc92258b81d6fd1e3d568f2975482a74714610d1f5760405162461bcd60e51b815260206004820152602360248201527f5555505350726f786961626c653a206e6f7420636f6d70617469626c65206c6f60448201527f67696300000000000000000000000000000000000000000000000000000000006064820152608401610195565b6001600160a01b0381163003610d775760405162461bcd60e51b815260206004820152601960248201527f5555505350726f786961626c653a2070726f7879206c6f6f70000000000000006044820152606401610195565b610d9f817f360894a13ba1a3210667c828492db98dca3e2076cc3735a920a3ca505d382bbc55565b7fe011bc04c286c344a8fcbb8de77f953da762c3e25d8cdea984147fc4168a5dcc7f38c23e558cab3d4281426cc82d6a9c0dc92258b81d6fd1e3d568f2975482a747604080519182526001600160a01b03841660208301520160405180910390a150565b6001600160a01b038116811461021557600080fd5b60008060408385031215610e2b57600080fd5b823591506020830135610e3d81610e03565b809150509250929050565b600060208284031215610e5a57600080fd5b5035919050565b600060208284031215610e7357600080fd5b8135610e7e81610e03565b9392505050565b60008060008060008060c08789031215610e9e57600080fd5b8635610ea981610e03565b95506020870135610eb981610e03565b94506040870135610ec981610e03565b93506060870135610ed981610e03565b92506080870135610ee981610e03565b915060a0870135610ef981610e03565b809150509295509295509295565b600060208284031215610f1957600080fd5b5051919050565b634e487b7160e01b600052601160045260246000fd5b8082028115828204841417610f4d57610f4d610f20565b92915050565b600082610f7057634e487b7160e01b600052601260045260246000fd5b500490565b81810381811115610f4d57610f4d610f20565b600060208284031215610f9a57600080fd5b81518015158114610e7e57600080fdfea26469706673582212206131513854d9df23c32de7121e6cf044a63bff78e2f5827e9648926da27d611b64736f6c63430008110033",
        "nonce": "0x14"
      },
      "additionalContracts": [],
      "isFixedGasLimit": false
    },
    {
      "hash": "0x70ee4a4b3986cfb4ac7b425d2f51fdaae4396e2b6f4a01c31ec4c46c4a13c236",
      "transactionType": "CALL",
      "contractName": "SuperPoolFactory",
      "contractAddress": "0x363aDCAef5Aa628Dd81DCd1db8937217a62883D1",
      "function": "createSuperPool((address,address,address,address,address,address)):(address)",
      "arguments": [
        "(0x42bb40bF79730451B11f6De1CbA222F17b87Afd7, 0xaD9e4dad3889553B75d72A4Bb0b20f8640F301f1, 0xbe49ac1EadAc65dccf204D4Df81d650B50122aB2, 0x9198F13B08E299d85E096929fA9781A1E3d5d827, 0x2271e3Fef9e15046d09E1d78a8FF038c691E9Cf9, 0x2058A9D7613eEE744279e3856Ef0eAda5FCbaA7e)"
      ],
      "transaction": {
        "type": "0x00",
        "from": "0xc0b60d26af7bb4aabad6e020b9583d136a0fb001",
        "to": "0x363adcaef5aa628dd81dcd1db8937217a62883d1",
        "gas": "0x1aa8bc",
        "value": "0x0",
        "data": "0xe64b144900000000000000000000000042bb40bf79730451b11f6de1cba222f17b87afd7000000000000000000000000ad9e4dad3889553b75d72a4bb0b20f8640f301f1000000000000000000000000be49ac1eadac65dccf204d4df81d650b50122ab20000000000000000000000009198f13b08e299d85e096929fa9781a1e3d5d8270000000000000000000000002271e3fef9e15046d09e1d78a8ff038c691e9cf90000000000000000000000002058a9d7613eee744279e3856ef0eada5fcbaa7e",
        "nonce": "0x15"
      },
      "additionalContracts": [
        {
          "transactionType": "CREATE",
          "address": "0xf19bfcE31552d555F56feAaf0b4C77b408b97DB3",
          "initCode": "0x608060405234801561001057600080fd5b50610251806100206000396000f3fe6080604052600436106100225760003560e01c80634a0687ef1461003957610031565b366100315761002f610059565b005b61002f610059565b34801561004557600080fd5b5061002f6100543660046101de565b61006b565b61006961006461018b565b6101ba565b565b73ffffffffffffffffffffffffffffffffffffffff81166100d35760405162461bcd60e51b815260206004820152601760248201527f5555505350726f78793a207a65726f206164647265737300000000000000000060448201526064015b60405180910390fd5b60006100fd7f360894a13ba1a3210667c828492db98dca3e2076cc3735a920a3ca505d382bbc5490565b73ffffffffffffffffffffffffffffffffffffffff16146101605760405162461bcd60e51b815260206004820152601e60248201527f5555505350726f78793a20616c726561647920696e697469616c697a6564000060448201526064016100ca565b610188817f360894a13ba1a3210667c828492db98dca3e2076cc3735a920a3ca505d382bbc55565b50565b60006101b57f360894a13ba1a3210667c828492db98dca3e2076cc3735a920a3ca505d382bbc5490565b905090565b3660008037600080366000845af43d6000803e8080156101d9573d6000f35b3d6000fd5b6000602082840312156101f057600080fd5b813573ffffffffffffffffffffffffffffffffffffffff8116811461021457600080fd5b939250505056fea2646970667358221220072db4d819c924888d6afd2e5a69c1416e59755f27a481eb4154021bd7fca1b464736f6c63430008110033"
        },
        {
          "transactionType": "CREATE",
          "address": "0xe95e825f4E94046d198a4F9090B04b132578A603",
          "initCode": "0x608060405234801561001057600080fd5b50610251806100206000396000f3fe6080604052600436106100225760003560e01c80634a0687ef1461003957610031565b366100315761002f610059565b005b61002f610059565b34801561004557600080fd5b5061002f6100543660046101de565b61006b565b61006961006461018b565b6101ba565b565b73ffffffffffffffffffffffffffffffffffffffff81166100d35760405162461bcd60e51b815260206004820152601760248201527f5555505350726f78793a207a65726f206164647265737300000000000000000060448201526064015b60405180910390fd5b60006100fd7f360894a13ba1a3210667c828492db98dca3e2076cc3735a920a3ca505d382bbc5490565b73ffffffffffffffffffffffffffffffffffffffff16146101605760405162461bcd60e51b815260206004820152601e60248201527f5555505350726f78793a20616c726561647920696e697469616c697a6564000060448201526064016100ca565b610188817f360894a13ba1a3210667c828492db98dca3e2076cc3735a920a3ca505d382bbc55565b50565b60006101b57f360894a13ba1a3210667c828492db98dca3e2076cc3735a920a3ca505d382bbc5490565b905090565b3660008037600080366000845af43d6000803e8080156101d9573d6000f35b3d6000fd5b6000602082840312156101f057600080fd5b813573ffffffffffffffffffffffffffffffffffffffff8116811461021457600080fd5b939250505056fea2646970667358221220072db4d819c924888d6afd2e5a69c1416e59755f27a481eb4154021bd7fca1b464736f6c63430008110033"
        }
      ],
      "isFixedGasLimit": false
    }
  ],
  "receipts": [
    {
      "transactionHash": "0xab15c08c03ccb31c8221857bdaf4abaf0e27ef04dd0cf44e3c2cf5114c7c7b94",
      "transactionIndex": "0x8",
      "blockHash": "0x88ffe9c9f6d2350e836af67d2ce187208212b53a04b36ac43e067bff0419f196",
      "blockNumber": "0x2547459",
      "from": "0xC0b60d26aF7Bb4AABaD6E020b9583d136A0Fb001",
      "to": null,
      "cumulativeGasUsed": "0x1e17a1",
      "gasUsed": "0xe2244",
      "contractAddress": "0xaD9e4dad3889553B75d72A4Bb0b20f8640F301f1",
      "logs": [
        {
          "address": "0x0000000000000000000000000000000000001010",
          "topics": [
            "0x4dfe1bbbcf077ddc3e01291eea2d5c70c2b422b415d95645b9adcfd678cb1d63",
            "0x0000000000000000000000000000000000000000000000000000000000001010",
            "0x000000000000000000000000c0b60d26af7bb4aabad6e020b9583d136a0fb001",
            "0x000000000000000000000000be188d6641e8b680743a4815dfa0f6208038960f"
          ],
          "data": "0x0000000000000000000000000000000000000000000000000004efaa27ea7c00000000000000000000000000000000000000000000000003c602fcf2e524043d0000000000000000000000000000000000000000000033c659f76d1d243261c3000000000000000000000000000000000000000000000003c5fe0d48bd39883d0000000000000000000000000000000000000000000033c659fc5cc74c1cddc3",
          "blockHash": "0x88ffe9c9f6d2350e836af67d2ce187208212b53a04b36ac43e067bff0419f196",
          "blockNumber": "0x2547459",
          "transactionHash": "0xab15c08c03ccb31c8221857bdaf4abaf0e27ef04dd0cf44e3c2cf5114c7c7b94",
          "transactionIndex": "0x8",
          "logIndex": "0x22",
          "removed": false
        }
      ],
      "status": "0x1",
      "logsBloom": "0x00000000000000000000000000000000000000000000000000000000000000000000000000000000000000000000000000008000000000000000000000000000000000000000000000000000000000800000000000000000000100000000004000000000000000000000000000000002000000000000000080000000000000000000000000000000000000000000100000000000000080000000000000000000200000000000000000000000000000000000000000000000000000000000004000000000000000000001000000000000000000000000000000100040000000020000000000000000000000000000000000000000000000000000000000100000",
      "type": "0x0",
      "effectiveGasPrice": "0x59682f10"
    },
    {
      "transactionHash": "0x70ee4a4b3986cfb4ac7b425d2f51fdaae4396e2b6f4a01c31ec4c46c4a13c236",
      "transactionIndex": "0x9",
      "blockHash": "0x88ffe9c9f6d2350e836af67d2ce187208212b53a04b36ac43e067bff0419f196",
      "blockNumber": "0x2547459",
      "from": "0xC0b60d26aF7Bb4AABaD6E020b9583d136A0Fb001",
      "to": "0x363aDCAef5Aa628Dd81DCd1db8937217a62883D1",
      "cumulativeGasUsed": "0x31649e",
      "gasUsed": "0x134cfd",
      "contractAddress": null,
      "logs": [
        {
          "address": "0x1820a4B7618BdE71Dce8cdc73aAB6C95905faD24",
          "topics": [
            "0x93baa6efbd2244243bfee6ce4cfdd1d04fc4c0e9a786abd3a41313bd352db153",
            "0x000000000000000000000000f19bfce31552d555f56feaaf0b4c77b408b97db3",
            "0xb281fc8c12954d22544db45de3159a39272895b169a852b314f9cc762e44c53b",
            "0x000000000000000000000000f19bfce31552d555f56feaaf0b4c77b408b97db3"
          ],
          "data": "0x",
          "blockHash": "0x88ffe9c9f6d2350e836af67d2ce187208212b53a04b36ac43e067bff0419f196",
          "blockNumber": "0x2547459",
          "transactionHash": "0x70ee4a4b3986cfb4ac7b425d2f51fdaae4396e2b6f4a01c31ec4c46c4a13c236",
          "transactionIndex": "0x9",
          "logIndex": "0x23",
          "removed": false
        },
        {
          "address": "0xbe49ac1EadAc65dccf204D4Df81d650B50122aB2",
          "topics": [
            "0x8c5be1e5ebec7d5bd14f71427d1e84f3dd0314c0f7b2291e5b200ac8c7c3b925",
            "0x000000000000000000000000f19bfce31552d555f56feaaf0b4c77b408b97db3",
            "0x000000000000000000000000e95e825f4e94046d198a4f9090b04b132578a603"
          ],
          "data": "0xffffffffffffffffffffffffffffffffffffffffffffffffffffffffffffffff",
          "blockHash": "0x88ffe9c9f6d2350e836af67d2ce187208212b53a04b36ac43e067bff0419f196",
          "blockNumber": "0x2547459",
          "transactionHash": "0x70ee4a4b3986cfb4ac7b425d2f51fdaae4396e2b6f4a01c31ec4c46c4a13c236",
          "transactionIndex": "0x9",
          "logIndex": "0x24",
          "removed": false
        },
        {
          "address": "0x42bb40bF79730451B11f6De1CbA222F17b87Afd7",
          "topics": [
            "0x8c5be1e5ebec7d5bd14f71427d1e84f3dd0314c0f7b2291e5b200ac8c7c3b925",
            "0x000000000000000000000000f19bfce31552d555f56feaaf0b4c77b408b97db3",
            "0x000000000000000000000000e95e825f4e94046d198a4f9090b04b132578a603"
          ],
          "data": "0xffffffffffffffffffffffffffffffffffffffffffffffffffffffffffffffff",
          "blockHash": "0x88ffe9c9f6d2350e836af67d2ce187208212b53a04b36ac43e067bff0419f196",
          "blockNumber": "0x2547459",
          "transactionHash": "0x70ee4a4b3986cfb4ac7b425d2f51fdaae4396e2b6f4a01c31ec4c46c4a13c236",
          "transactionIndex": "0x9",
          "logIndex": "0x25",
          "removed": false
        },
        {
          "address": "0xB3f5503f93d5Ef84b06993a1975B9D21B962892F",
          "topics": [
            "0x73f079427211e7b93db86024054de0b3c4a076a36cf0f86d2c4bf0d112eb7f1d",
            "0x000000000000000000000000f19bfce31552d555f56feaaf0b4c77b408b97db3",
            "0x000000000000000000000000f19bfce31552d555f56feaaf0b4c77b408b97db3",
            "0xd06847135d36038796ae0efd24b394a5897909f29a9f3ca246fe727ccc354213"
          ],
          "data": "0x000000000000000000000000000000000000000000000000000000000000006000000000000000000000000000000000000000000000000000000000000000a0000000000000000000000000eeeeeeeeeeeeeeeeeeeeeeeeeeeeeeeeeeeeeeee0000000000000000000000000000000000000000000000000000000000000004e5e2fd7b000000000000000000000000000000000000000000000000000000000000000000000000000000000000000000000000000000000000000000000040000000000000000000000000000000000000000000000000000000000000008000000000000000000000000000000000000000000000000000000000000000010000000000000000000000000000000000000000000000000000000000000000000000000000000000000000000000000000000000000000000000000000000100000000000000000000000000000000000000000000000000000000000000200000000000000000000000000000000000000000000000000000000000000080000000000000000000000000f19bfce31552d555f56feaaf0b4c77b408b97db3000000000000000000000000000000000000000000000000000000000000004000000000000000000000000000000000000000000000000000000000000000048e22364b00000000000000000000000000000000000000000000000000000000",
          "blockHash": "0x88ffe9c9f6d2350e836af67d2ce187208212b53a04b36ac43e067bff0419f196",
          "blockNumber": "0x2547459",
          "transactionHash": "0x70ee4a4b3986cfb4ac7b425d2f51fdaae4396e2b6f4a01c31ec4c46c4a13c236",
          "transactionIndex": "0x9",
          "logIndex": "0x26",
          "removed": false
        },
        {
          "address": "0xf19bfcE31552d555F56feAaf0b4C77b408b97DB3",
          "topics": [
            "0x7f26b83ff96e1f2b6a682f133852f6798a09c465da95921460cefb3847402498"
          ],
          "data": "0x0000000000000000000000000000000000000000000000000000000000000001",
          "blockHash": "0x88ffe9c9f6d2350e836af67d2ce187208212b53a04b36ac43e067bff0419f196",
          "blockNumber": "0x2547459",
          "transactionHash": "0x70ee4a4b3986cfb4ac7b425d2f51fdaae4396e2b6f4a01c31ec4c46c4a13c236",
          "transactionIndex": "0x9",
          "logIndex": "0x27",
          "removed": false
        },
        {
          "address": "0x2058A9D7613eEE744279e3856Ef0eAda5FCbaA7e",
          "topics": [
            "0x8c5be1e5ebec7d5bd14f71427d1e84f3dd0314c0f7b2291e5b200ac8c7c3b925",
            "0x000000000000000000000000e95e825f4e94046d198a4f9090b04b132578a603",
            "0x0000000000000000000000009198f13b08e299d85e096929fa9781a1e3d5d827"
          ],
          "data": "0xffffffffffffffffffffffffffffffffffffffffffffffffffffffffffffffff",
          "blockHash": "0x88ffe9c9f6d2350e836af67d2ce187208212b53a04b36ac43e067bff0419f196",
          "blockNumber": "0x2547459",
          "transactionHash": "0x70ee4a4b3986cfb4ac7b425d2f51fdaae4396e2b6f4a01c31ec4c46c4a13c236",
          "transactionIndex": "0x9",
          "logIndex": "0x28",
          "removed": false
        },
        {
          "address": "0xbe49ac1EadAc65dccf204D4Df81d650B50122aB2",
          "topics": [
            "0x8c5be1e5ebec7d5bd14f71427d1e84f3dd0314c0f7b2291e5b200ac8c7c3b925",
            "0x000000000000000000000000e95e825f4e94046d198a4f9090b04b132578a603",
            "0x00000000000000000000000042bb40bf79730451b11f6de1cba222f17b87afd7"
          ],
          "data": "0xffffffffffffffffffffffffffffffffffffffffffffffffffffffffffffffff",
          "blockHash": "0x88ffe9c9f6d2350e836af67d2ce187208212b53a04b36ac43e067bff0419f196",
          "blockNumber": "0x2547459",
          "transactionHash": "0x70ee4a4b3986cfb4ac7b425d2f51fdaae4396e2b6f4a01c31ec4c46c4a13c236",
          "transactionIndex": "0x9",
          "logIndex": "0x29",
          "removed": false
        },
        {
          "address": "0xe95e825f4E94046d198a4F9090B04b132578A603",
          "topics": [
            "0x7f26b83ff96e1f2b6a682f133852f6798a09c465da95921460cefb3847402498"
          ],
          "data": "0x0000000000000000000000000000000000000000000000000000000000000001",
          "blockHash": "0x88ffe9c9f6d2350e836af67d2ce187208212b53a04b36ac43e067bff0419f196",
          "blockNumber": "0x2547459",
          "transactionHash": "0x70ee4a4b3986cfb4ac7b425d2f51fdaae4396e2b6f4a01c31ec4c46c4a13c236",
          "transactionIndex": "0x9",
          "logIndex": "0x2a",
          "removed": false
        },
        {
          "address": "0xEB796bdb90fFA0f28255275e16936D25d3418603",
          "topics": [
            "0x0d540ad8f39e07d19909687352b9fa017405d93c91a6760981fbae9cf28bfef7",
            "0x000000000000000000000000f19bfce31552d555f56feaaf0b4c77b408b97db3"
          ],
          "data": "0x",
          "blockHash": "0x88ffe9c9f6d2350e836af67d2ce187208212b53a04b36ac43e067bff0419f196",
          "blockNumber": "0x2547459",
          "transactionHash": "0x70ee4a4b3986cfb4ac7b425d2f51fdaae4396e2b6f4a01c31ec4c46c4a13c236",
          "transactionIndex": "0x9",
          "logIndex": "0x2b",
          "removed": false
        },
        {
          "address": "0x0000000000000000000000000000000000001010",
          "topics": [
            "0x4dfe1bbbcf077ddc3e01291eea2d5c70c2b422b415d95645b9adcfd678cb1d63",
            "0x0000000000000000000000000000000000000000000000000000000000001010",
            "0x000000000000000000000000c0b60d26af7bb4aabad6e020b9583d136a0fb001",
            "0x000000000000000000000000be188d6641e8b680743a4815dfa0f6208038960f"
          ],
          "data": "0x0000000000000000000000000000000000000000000000000006bd9ec6ea7300000000000000000000000000000000000000000000000003c5fe0d48bc5763fd0000000000000000000000000000000000000000000033c659fc5cc74c1cddc3000000000000000000000000000000000000000000000003c5f74fa9f56cf0fd0000000000000000000000000000000000000000000033c65a031a66130750c3",
          "blockHash": "0x88ffe9c9f6d2350e836af67d2ce187208212b53a04b36ac43e067bff0419f196",
          "blockNumber": "0x2547459",
          "transactionHash": "0x70ee4a4b3986cfb4ac7b425d2f51fdaae4396e2b6f4a01c31ec4c46c4a13c236",
          "transactionIndex": "0x9",
          "logIndex": "0x2c",
          "removed": false
        }
      ],
      "status": "0x1",
      "logsBloom": "0x10000000021000000000000000080040800000000000000040000000030000001000000000004000000000000000002000008000000000000000000000200000010000000400000000000000000000800400001000080000001100010001004000000000000001002000000000000002040210004020000880000000000001000000002000000000400000004000180000000000000080000000012000000000220020400000000000000200000400000000080000000000200841000000204000000000000000600001000000040000000000000000000000100040000020020010000000010000000000000000000000000000000000000000000020100000",
      "type": "0x0",
      "effectiveGasPrice": "0x59682f10"
    }
  ],
  "libraries": [],
  "pending": [],
  "returns": {},
  "timestamp": 1692268964,
  "chain": 80001,
  "multi": false,
  "commit": "2b45ac2"
}